:020000040800F2
:1000000010CA0120E101000807700108D35A010855
:10001000057001088D1C0108E5830108000000003F
:10002000000000000000000000000000EB7A010862
:10003000AD1D01080000000009700108F901000869
:10004000FB010008FB010008FB010008FB010008A0
:10005000FB010008FB010008FB010008FB01000890
:10006000FB010008FB010008FB010008FB01000880
:10007000FB010008FB010008FB010008FB01000870
:10008000FB010008FB010008FB010008FB01000860
:10009000FB010008FB010008FB010008FB01000850
:1000A000FB010008FB010008FB010008FB01000840
:1000B000FB010008FB010008FB010008FB01000830
:1000C000FB010008FB010008FB010008FB01000820
:1000D000FB010008FB010008FB010008FB01000810
:1000E000FB010008FB010008FB010008FB01000800
:1000F000FB010008FB010008FB010008FB010008F0
:10010000FB010008FB010008FB010008FB010008DF
:10011000FB010008FB010008197C0108FB01000835
:10012000FB010008FB010008FB010008FB010008BF
:10013000FB010008FB010008FB010008FB010008AF
:10014000FB010008FB010008FB010008FB0100089F
:10015000FB010008FB010008FB010008FB0100088F
:10016000FB010008FB010008FB010008FB0100087F
:10017000FB010008FB010008FB0100080000000073
:10018000FB010008FB010008FB010008FB0100085F
:10019000FB010008FB010008FB010008FB0100084F
:1001A00031640108FB0100086D1D0108FB01000816
:1001B000FB010008FB010008FB010008FB0100082F
:1001C000FB010008FB010008DFF810D000F0C8F9BF
:1001D00000480047E18C0108AFF3008010CA0120FD
:1001E0000648804706480047FEE7FEE7FEE7FEE7D1
:1001F000FEE7FEE7FEE7FEE7FEE7FEE7C57B010858
:10020000C90100082DE9F05F0546002092469B4693
:1002100088460646814640241BE02846414647461C
:10022000224600F04AF953465A46C01A914110D36B
:1002300011461846224600F031F92D1A67EB0108E5
:100240004F4622460120002100F028F917EB000953
:100250004E41201EA4F10104DFDC484631462A4607
:100260004346BDE8F09F10B5441A0346944209D2B4
:100270008418114403E011F8013D04F8013D521EB9
:10028000F9D210BD40EA0104A40703D009E010C967
:10029000121F10C3042AFAD203E011F8014B03F82D
:1002A000014B521EF9D210BDD2B201E000F8012B71
:1002B000491EFBD270470022F6E710B513460A46E6
:1002C00004461946FFF7F0FF204610BD421C10F807
:1002D000011B0029FBD1801A7047034611F8012B3E
:1002E00000F8012B002AF9D1184670470FB400B569
:1002F0008DB010A909900B9000914FF0FF300A903B
:1003000000200C9005480690054807906A4609A809
:100310000F9900F0F7F80DB05DF814FB2105000807
:100320003F0500082DE9FF5F1D464FF0FF3BD5E973
:10033000014691465F464FF00008A9697F1C01986D
:100340008847296A824688470028F6D1BAF1FF3FDC
:100350000CD024F4C064002E19DD600614D5BAF167
:100360002B0F09D0BAF12D0F0ED103E0584604B07F
:10037000BDE8F09F44F48064A9697F1C0198884718
:10038000761E8246002E02DDBAF1300F03D0B9F19D
:10039000000F26D032E0A969761E44F400747F1C59
:1003A000019888478246002E05DDBAF1780F06D005
:1003B000BAF1580F03D0B9F1000F10D01EE0B9F117
:1003C000000F02D0B9F1100F18D1A969761E24F4DC
:1003D00000747F1C019888478246102002E00820A4
:1003E00000E00A20814609E008FB0908A969761E99
:1003F00044F400747F1C019888478246002E05DD76
:100400004946504600F069F80028EDDAE96901989C
:100410008847A00502D46FF00100A8E7E00725D1C6
:10042000600613D5600502D5C8F1000000E0404623
:1004300029680A1D2A600968220501D5087015E09F
:10044000220701D5088011E008600FE02868011D2F
:1004500029600068210502D580F8008006E02107A8
:1004600002D5A0F8008001E0C0F8008038467EE7A1
:1004700030B50B46014600202022012409E021FA74
:1004800002F59D4205D303FA02F5491B04FA02F571
:100490002844151EA2F10102F1DC30BD202A04DB44
:1004A000203A00FA02F1002070479140C2F1200387
:1004B00020FA03F3194390407047202A04DB203AC6
:1004C00021FA02F00021704721FA02F3D040C2F174
:1004D000200291400843194670473A2800D230382C
:1004E00020F02002412A01D3A2F13700884201D333
:1004F0004FF0FF307047000002681144137801602C
:1005000018467047D16004495161044911620021C5
:100510001161114600F03CB8F90400088505000897
:10052000426842B1016811F8013B23B1521EC0E993
:100530000012184670470121C160881E704742684A
:100540005AB1C368016843B983688B4205D0491E1C
:10055000521CC0E90012002070474FF0FF30704776
:10056000064C074D06E0E06840F0010394E8070000
:1005700098471034AC42F6D3FFF72AFE64D701083F
:1005800084D70108C0B24FF4F05100F099B90000CF
:100590002DE9F34F8BB04FF0000801F10C000C4631
:1005A0004FF0010B46460DF1080A019062690121E6
:1005B00001989047051E2DD0252D2CD0216A884703
:1005C000C0B16269012101989047216A88470028DB
:1005D000F7D1411E62690198904700E0761CA1693D
:1005E0000B988847216A88470028F7D1E1690B9862
:1005F0008847DBE7A1690B9888470746A84201D1E5
:10060000761CD3E7E1690B9888477F1C02D1B8F1CB
:10061000000F6FD047E1002762693D4639460198D7
:1006200090472A2804D16269012101989047012549
:10063000DFF888926269012101989047A0F13001AA
:100640000A290AD24F45E5DC07EB870100EB410799
:10065000303FDFD445F01005ECE7E90601D46FF038
:1006600000476C280AD04C2814D0682815D06A2876
:100670000DD074281CD07A281AD01DE0626901219F
:10068000019890476C2802D045F0040514E045F02D
:1006900002050DE045F020050AE06269012101989C
:1006A0009047682802D045F0080505E045F400654C
:1006B0006269012101989047C4E9015765283DD03E
:1006C00019DC58287AD00CDC452837D004DC2528E2
:1006D00026D0412831D131E046282FD047282CD1CF
:1006E0002CE05B2877D0612828D063287CD0642850
:1006F00023D15AE0D1E06F2848D008DC66281DD00D
:1007000067281BD0692821D06E2816D127E07028D1
:1007100045D0732868D0752847D078280DD14DE092
:10072000A1690B988847054625283FF469AFE16920
:100730000B9888476D1C3FF46AAFB4E023466A46C5
:100740006FF001000B99AFF300809FE045F040008F
:100750006060A80723464FF0000236D43EE0E80769
:100760007FF447AF2068011D21600068290501D58D
:1007700006701BE7290701D5068017E7A90703D5EF
:10078000F117C0E9006111E706600FE745F040008E
:100790006060A80723464FF0080216D41EE040F61A
:1007A0000E0125EA0100606016E045F0400060603F
:1007B000A80723464FF00A0207D40FE045F0400097
:1007C0006060A80708D5234610226FF001000B993E
:1007D000AFF300805AE007E0234610226FF00100DB
:1007E0000B99FFF79FFD51E04FF000094F464B4634
:1007F000632802D05B2807D041E02079C00601D4ED
:100800000120A06001273AE0626901210198904728
:100810005E2805D14FF00109626949460198904769
:10082000216939B900210A46534643F82120491C61
:100830000829FADBB0B3216969B9C11700EBD162AD
:1008400053110AEB830122F01F02821A01200B6868
:10085000904003430B6062690121019890475D2835
:10086000E8D1B9F1000F09D00020514651F82020FD
:10087000D24341F82020401C0828F7DB02AB224677
:1008800000976FF001000B99AFF3008000280CDA9D
:10089000401C08D1BBF1000F05D04FF0FF300DB068
:1008A000BDE8F08FFFE74046F9E7E90701D108F11D
:1008B000010806444FF0000B78E60000CCCCCC0CCD
:1008C0007F2801D9002208E0064A02EB5002C00747
:1008D000127800D1120902F00F0201209040084066
:1008E00070470000B08F010870B58C1810F8015BDC
:1008F00015F0070301D110F8013B2A1106D110F8B9
:10090000012B03E010F8016B01F8016B5B1EF9D1BC
:100910002B0705D40023521E0DD401F8013BFAE742
:1009200010F8013BCB1A921C03E013F8015B01F8AD
:10093000015B521EF9D5A142D8D3002070BD000042
:1009400070B5456882B004460146284607F0C8FCE9
:1009500068B123680F2B59D00BDD282B45D0B3F598
:10096000107F3CD0112B49D0204608F01BF902B073
:1009700070BD0B2B20D00E2BF6D1E3681A68596896
:100980000D2A53D0202A31D1002928464FF48071F6
:100990007DDD07F087FD284601F04AFC02AB846A42
:1009A00043F8040D184601F077FDA207DFD528466D
:1009B000012109F097FADAE7284602AD01F038FC88
:1009C00003466830019301F025FA55F8040D032120
:1009D0006C3001F03BFA284601F05EFDC4E7324B73
:1009E000214628461B689847C1E7E368002BBBD126
:1009F00028464FF4807107F05BFCB5E72B4B1B6872
:100A0000002BB4D0214628469847B0E7284601F08D
:100A10000FFC034602A840F8043D5B6E1C6801F021
:100A20003BFD002CA3D02846A047A0E70029DDDD30
:100A30004FF48071284607F035FD02AC284601F0DE
:100A4000F7FB866A44F8040D204601F025FDB10746
:100A500003D50121284609F045FA4FF48071284654
:100A600007F026FC284601F0E3FB034620461E8ED5
:100A70009C6A019301F010FD304604F015FCA307B9
:100A80007FF575AF2846022109F02CFA6FE707F0D1
:100A90000FFC284601F0CCFB034602A89C6A1E8E80
:100AA00040F8043DE6E700BFA0000020B8C30120E5
:100AB0002DE9F043044687B0304F00260091A56928
:100AC000B0F90C104C35B0F90A001944B4F91030E3
:100AD0001044B4F90E20039502970196B4F908501A
:100AE00007F074FF804618B9404607B0BDE8F083B0
:100AF000234F0DF1180901F09BFB294610220590A8
:100B00003E1D07F0F7FD59F804ED0FCE0EF1340548
:100B10000FC50FCE0FC596E80F0085E80F007B6B61
:100B20004846CEF8643001F0B7FC7B6B40465B680A
:100B300098474046656801F07BFB034604A89C6E1D
:100B40000493059401F0A8FC2946484605F062FF8D
:100B50000028C9D0059B9C4209D0404601F068FBA3
:100B6000059A034604A89A66049301F095FC404652
:100B700008F0E6FE404607B0BDE8F08341090008F2
:100B8000A0000020974A816843682DE9F04104469F
:100B900088B052F82160122B40D8DFE803F0B03F54
:100BA0003F3F3F0A973F3F3F3F3F3F3F3F3F3F3F32
:100BB0004300F569002D40F0B580371F57F8040F4A
:100BC00004F022FB04F1140120690EC928445B1BC8
:100BD000521B2944013502F0F3F9022DEED162696E
:100BE0003169E3690191911CF76813442069A26996
:100BF0005B1028440097521B02F0ECF8E16962692F
:100C0000B0698B1E1144A269019049102069766970
:100C1000521B01312844009602F0DCF8002008B095
:100C2000BDE8F081006801F003FB876E0490002F9F
:100C300000F0D080A368B0F95C80002B00F0C88081
:100C4000032B14BF0023022300EB8303406D08AC89
:100C50001D6C04F0DDFA284604F0D6FA06A802F06E
:100C6000DDFAB28BBDF8181006A8BDF81C3011448F
:100C7000BDF81A509A1ABDF81E30ADF8181002359A
:100C800054F8101D023BADF81C20B1F96020B1F9F9
:100C90005E10ADF81E30ADF81A5003F02FFE20465E
:100CA00008AC01F0F9FB022004F0ECFA384601F040
:100CB000BFFA06A9424644F80C0D01F09BFF2046FE
:100CC00001F0EAFB002008B0BDE8F081006801F007
:100CD000AFFA049020680AF00DFBB8B9049B5D6F71
:100CE00005B9DD6E04A801F0D7FB00232846216872
:100CF0001A4601F0ABFE002008B0BDE8F0810068A4
:100D000009F03CFB002008B0BDE8F081A368002B8F
:100D100064D1049A136F002B14BF6C23682313440F
:100D20005D68DFE7B268B046C36900270392716867
:100D30008269029158F8040900956169019020695F
:100D400005F01AFA58F8040F04F05EFAF369A26984
:100D500021696069D21A1944384402F00BF9F36929
:100D6000A2692169E069D21A1944C01B02F002F994
:100D7000F369E26961692069D21A1944384402F0C2
:100D800061F9A069F369E269C01B61690137D21A90
:100D9000194402F057F9022FD4D1B06804F034FAA4
:100DA000F16922696569901CE3690A445B1A294468
:100DB000013A02F099F9F169A0696569E369821E57
:100DC000401A5B1A2944013002F08EF9F56906E7F2
:100DD000012339E704A801F05FFB1FE7049BDD6EE8
:100DE00080E700BF54CD010800B97047F0B583B06B
:100DF00014460D4601F01CFA836E00902BB92B703F
:100E0000684601F049FB03B0F0BD184601F010FA46
:100E100007460190FFF75AFAA0420646094B3946A9
:100E2000A8BF04F1FF3628461B683246984701A840
:100E300001F032FB00236846AB5501F02DFB03B0F7
:100E4000F0BD00BF2C01002070B582B018B901249C
:100E5000204602B070BD0C46054601F0E9F9034694
:100E6000866E68468DE8480001F016FB214601A811
:100E700005F0D0FD00280CBF01240024E8D0019B20
:100E80009E4209D0284601F0D3F9019A03466846EC
:100E90009A66009301F000FB284608F051FD2046B9
:100EA00002B070BD2DE9F04F446805468BB0204676
:100EB0000AF020FA29460646204607F011FA0028D3
:100EC00034D02B680F2B5CD033DC0B2B46D00E2B91
:100ED00051D1002E4FD0EB685A68002A4BDDD3F871
:100EE0000080A8F10903192B06D80121BF4A01FA95
:100EF00003F31A40002A3ED1C4B10AAE204601F0E5
:100F000097F90346876D46F8180D304693F854A0BC
:100F1000D3F83490DD6C01F0BFFA002F00F0DC80D4
:100F200041462046B847204608F00AFD0BB0BDE810
:100F3000F08F40F21312934228D0B3F5107F1AD1EC
:100F4000EB68002B00F096801A7A002A4ED0002C15
:100F500041D12046012108F0C5FF0CE020460AAC33
:100F600001F066F90346343044F8043D00F052FFC6
:100F7000204601F091FA284607F014FE0BB0BDE8B8
:100F8000F08F204601210FF0C5F8CFE720460AAECA
:100F900009F0E2F8204601F04BF9034646F8040D4B
:100FA000304693F8562082F0040283F8562001F070
:100FB00073FA002120460FF0ADF8204601F038F911
:100FC00003460021D0F88400099309F06BF83046FD
:100FD00001F062FACFE720461E6801F029F9436B61
:100FE000079043B907A801F057FAB2E7204602215B
:100FF00008F078FFBFE7184601F01AF9079B069042
:10100000986E04F005F98046204608F0D7F80746A8
:10101000069802F03FF9079A8146136E03F0030326
:10102000012B00F0E781022B40F0DD813B1A0133F8
:1010300048BF0133A6EB6306069805F02DFB002E92
:101040000746C0F2F881B14519DA204601F0F0F800
:10105000436B0890002B40F0D38108A801F01CFAE4
:1010600006A801F019FA404604F0D2F8204608F02C
:1010700067FCB7E72046032108F034FF7BE7024610
:101080003146069805F088FA0646204601F0D0F869
:10109000436B0890002BE0D0184626EAE67601F074
:1010A000C7F8099005F0F8FA0899B1F9383091F8C5
:1010B0005470CA6C002F18BF013BB342A8BF33461F
:1010C0009842A8BF1846824200D0C864002309A8ED
:1010D0000B6501F0E1F9C0E7A8F10803162B00F257
:1010E000E680DFE813F0A000E400E400E400E400A0
:1010F000E400E400E400BC00850076004800E40061
:10110000E400E400E400E400E400E400E400E400BF
:1011100038001700204601F08BF803460AA85D6BE3
:1011200040F8083DDF6C01F0B7F9002D3FF4FBAE4D
:10113000284601F07DF839460646099004F004FA85
:1011400005463046FFF7C2F88542C0F0E28109A8A3
:1011500001F0A2F9E7E6204601F06AF8BAF1010FC2
:101160000346049040F08781002280F854203046E6
:1011700001F092F9D7E6B9F1000F3FF4D4AE48463A
:1011800001F056F806462946099004F0DDF90644B8
:10119000304604F099F9002305468DF82230ADF869
:1011A0002030013D04F09CF90746ADB2284604F01A
:1011B00097F98742CBD1294608A804F07FF908A9FE
:1011C0003A463046FFF74FF80521204608F08AFEE0
:1011D000BDE7204601F02CF8436B0890002B40F04F
:1011E000A88108A801F058F99DE600BF1300040388
:1011F000B9F1000F3FF497AE484601F019F80646E2
:101200002946099004F0A0F90644304604F05CF940
:10121000002305468DF82230ADF82030013504F06A
:101220005FF90746C1E7002D3FF47DAE204600F090
:10123000FFFF436B0890002B40F0948108A801F059
:101240002BF9204600F0F4FF034608A85D6BDF6C25
:10125000089301F021F9002D3FF465AE68E72046C0
:1012600000F0E6FF436B0890002BBAD0184600F060
:10127000DFFF099005F010FA089A6B1EB2F93810DA
:1012800023EAE37392F85460D56C002E18BF01393D
:101290008B42A8BF0B469842A8BF18460023854240
:1012A000136518BFD06409A801F0F6F899E7B8F102
:1012B0001F0F7FF738AEBAF1000F40F008812046CB
:1012C00000F0B6FFB0F9383081460590002B07DDFD
:1012D000406B002840F06B8107469F4280F263819B
:1012E0001FFA88F30DF128091E46019359F8143DA1
:1012F000DB6C4846039301F0CFF8304604F0F0F879
:101300008346204600F094FF436B0690002B40F08C
:101310008F811E460AA80BEB060350F8102D0133EF
:10132000568F9E1B01F0B8F8002E40F37E812046B8
:10133000103600F07DFF0346B0F83A800AAFD3F8CC
:1013400034A0B04447F8080D384601F0A5F84146EE
:10135000504600F081FF029000283FF4E4ADBAF15E
:10136000000F00F0548109AE204600F061FF029AA0
:10137000034638460893A3F83A805A6301F08CF884
:10138000204600F055FF03464846D3F834800593C5
:1013900001F082F8404600F04BFF80460399099027
:1013A00004F0D2F880444046FEF790FF4146421CCC
:1013B00008EB0B00FEF757FF0199404604F07EF85A
:1013C000304601F069F80521204608F08BFD2046E3
:1013D00000F02EFF436B0890002B40F0F68038465B
:1013E00001F05AF89FE5536ED16A5A1C0B681344FA
:1013F000F61A21E6536E3F1A0133FB1AF61A1BE662
:10140000184627EAE77700F013FF099005F044F942
:101410000899B1F9383091F85460CA6C002E18BFA1
:10142000013BBB42A8BF3B469842A8BF1846824238
:101430007FF44BAE4AE6204600F0FAFE436B08907C
:10144000002B3FF40AAE184600F0F2FE099005F0BA
:1014500023F90899B1F9383091F85460CA6C002E1C
:1014600018BF013B03EAE3739842A8BF18468242C3
:101470007FF42BAE2AE60122204683F8542000F0A8
:10148000D7FE436B0890F3B1184625EAE57500F0E6
:10149000CFFE099005F000F9089AB2F9383092F8B9
:1014A0005470D16C002F18BF013BAB42A8BF2B4634
:1014B0009842A8BF184600238142136518BFD06424
:1014C00009A800F0E9FF08A800F0E6FF4FE60AAF20
:1014D000204600F0ADFE466B034647F8080D38463F
:1014E000D3F84C9000F0D8FF002E3FF4E8AE304621
:1014F00000F09EFE49460746099004F025F806468E
:101500003846FEF7E3FE86421CD309A800F0C4FF6C
:10151000D5E63544284603F0DDFF29182846FEF7B6
:10152000DCFE09A800F0B8FF0521204608F0DAFC2F
:10153000F9E4184600F07CFE099005F0ADF8089A31
:101540006B1C9BE63E44304603F0C4FF3118304626
:10155000FEF7C3FE09A800F09FFF0521204608F012
:10156000C1FCACE6184600F063FE099005F094F863
:10157000089A6B1EB2F9381092F8546023EAE373AC
:10158000D56C002E18BF01398B42A8BF0B4698427C
:10159000A8BF184600238542136518BFD06409A868
:1015A00000F07AFF4AE605A800F076FFBBE40AAE39
:1015B00000F03EFE46F8040D05F06EF80746304692
:1015C00000F06AFFB9F9383087E6184600F030FEBF
:1015D000099005F061F808996B1C91F854E0B1F995
:1015E000385023EAE373CA6CBEF1000F18BF013D07
:1015F000AB42A8BF2B469842A8BF18460023904292
:101600000B6518BFC864304600F046FFE7E600F0FF
:101610000FFE0AAE0D4B514646F8040D42461B68BC
:101620009847304600F038FF9EE609AE08AFA7E6BF
:1016300018460AAF00F0FCFD47F80C0DFEF746FE19
:101640000646384600F028FF64E600BF300100205F
:101650002DE9F047044688B04D4F4FF48056009175
:10166000A569B0F90C106035B0F90A001944B4F955
:1016700010301044B4F90E20039502970196B4F986
:101680000850D4F8148007F0A1F920B90027384693
:1016900008B0BDE8F087074600F0CAFD29461022D1
:1016A000059007F027F83B4E4FF0010CDDF814E0F1
:1016B0000FCE0EF160050FC50FCED6F8009018F1D1
:1016C000010618BF0126B8F1000F0FC5C5F800903C
:1016D0008EF855C08EF8886055DD0FFA88F808EB53
:1016E0000C050023AEF8388005A808AEAEF83A30F5
:1016F000CEF8343000F0D0FE384600F099FD0346B5
:10170000428FD3F83480154446F8080D304600F077
:10171000C3FE2946404600F09FFD824678B3B8F1EB
:10172000000F1DD00DF11C09384600F081FD034665
:1017300030465D87C3F834A0069300F0ADFE38460E
:10174000648A00F075FD079018B10466384608F009
:10175000F7F8484600F0A0FE384608B0BDE8F0872C
:1017600000F066FD0DF120090B4B414649F8040DD0
:101770002A461B689847484600F08EFED4E7384654
:1017800007F040FA82E709254FF00808A9E700BFF3
:10179000A50E0008D80000203001002000B97047D5
:1017A00070B582B00D46044600F042FD02AE03461D
:1017B0008566204646F8043D08F0C2F8304600F041
:1017C0006BFE02B070BD00BF00B97047AFF3008080
:1017D0002DE9F04F8BB00E46074600F029FD0AAD0B
:1017E0000246446B45F8180D2846B2F9388000F0DF
:1017F00053FE002E00F0A880002C7DD1A14630467B
:10180000444604F049FF8045A8BF044630462146BF
:1018100003F09AFE00F10108384600F009FD436B21
:10182000C9EB080A0690002B57D19946D144438F43
:1018300006A809F10109C3EB090900F02DFEB9F171
:10184000000F25DD384609F1100900F0F1FC0346D0
:10185000428F0DF1280AD3F834B091444AF8080DAC
:10186000504600F019FE4946584600F0F5FC01903C
:1018700068B3BBF1000F54D0384600F0D9FC019B8F
:1018800002465046A2F83A905363089200F004FED4
:10189000384600F0CDFC0346406B049300F0C8FCD2
:1018A000314B4246314605901B689847059A002304
:1018B000904408F8013C049BB3F93820DC64A24250
:1018C00028D005A800F0E8FD284600F0E5FD3846E0
:1018D00008F036F80BB0BDE8F08F18460DF1280B74
:1018E00000F0A6FC4BF80C0DFEF7F0FC81465846C4
:1018F00000F0D2FD069899E720460AAC00F098FC6B
:1019000044F8140DFEF7E2FC00F10109204600F056
:10191000C3FD74E793F85420012AD2D1013CDC6462
:10192000CFE700F085FC0AABDFF840E0594643F80A
:10193000040D4A46DEF800B002930393D847029B99
:10194000184600F0A9FD97E7384600F071FC034601
:101950003430049300F05EFA049B28465E87DE6410
:1019600000F09AFDB3E700BF2C01002030010020F9
:1019700000B9704730B583B004460D4600F058FCFE
:10198000019018B10566204607F0DAFF01A800F0C3
:1019900083FD03B030BD00BF0D4B10B5186806F0D5
:1019A000F1F80C4B0C4C186806F026F9236800225D
:1019B00001219A8510465A85197606F04FF9074A93
:1019C0002368126802B1DA6100229A7610BD00BF66
:1019D000800000207C00002084000020780000208F
:1019E000014B83E8030070470CC20120014B83E8E0
:1019F0000300704714C20120014B83E803007047C5
:101A00001CC20120704700BF704700BF2DE9F04F96
:101A10005C4E8DB03368DA69B3F92250D469B4F8FA
:101A20000CB0834500F29780E1898142C0F0938039
:101A30002168CBEB000B08914FF0FF310A91BBF10D
:101A4000FF3F00F0828092F81880A27CB3F92A1040
:101A5000B3F9249018FB02F3084607911F4694F847
:101A600010A006F0FBF8D6F800E008994346DEF82F
:101A700038C05246099007FB0B10DEF81CE00B97AC
:101A8000012704904946CDF814C0284694F812C0A6
:101A90000297CDF80CC09EF81BC0DFF8E8B0CDF877
:101AA00004C09EF81AE0CDF800E005F017FA0A9F8E
:101AB0007B1C25D0079941F0020006F0CFF8DBF837
:101AC00000100B9A43460898D1F838C002FB070073
:101AD000D1F81CE00127CDF814C00490524694F8C8
:101AE00012C0494602972846CDF80CC09EF81BC08C
:101AF000CDF804C09EF81AE0CDF800E005F0EEF94C
:101B00003368DFF88080DB695A7E1B7E9A4215D9E4
:101B1000079B022B12D083F0040006F09FF8D8F840
:101B200000302846DB691F7ED97E9A7E5B7E07FBEC
:101B300001910AFB02524B4405F0D8FB9DF82400AA
:101B400006F08CF83368B3F92250627C15445D844A
:101B50000DB0BDE8F08FA1680029F6D00F88B8421B
:101B6000F3D3B1F802E08645EFD3C01B496867683C
:101B700080B2089701EB800731F920B0B7F9021065
:101B80000A915CE784000020044B1B68DB69DB6979
:101B900009B11A7C0A60587C704700BF840000209D
:101BA00002230B80704700BFC3699A898A4202D81A
:101BB000DA898A4211D2986818B10388994201D211
:101BC0000020704742888A42FAD3C91A436833F822
:101BD0002100C043C0F3C03070470120704700BFF0
:101BE0002DE9F04F3A4D89B02B68DA69B3F92A90A4
:101BF000D36943B11A88904202D35988814205D2F1
:101C00009B68002BF6D109B0BDE8F08F841AD3F899
:101C10000480484608EBC40696F802B006F01EF8A9
:101C20008246286818F834204FF0010EC769D0F8B2
:101C300038C0B0F92410B0F922003B7E0790CDF8EF
:101C400014C07068CDF80CB00490CDF808E097F897
:101C50001BE00798CDF804E0BF7E009705F03EF941
:101C60002B68DA69537E177EBB4223D9B9F1020F84
:101C700007931FD092F81BB001F0D4FA814601F00F
:101C8000B5FA03F0C1FA124B18F834E01868079B54
:101C9000C169B0F92240CA7EB0F9241020460EFB7B
:101CA00002420BFB03130BFB071105F01FFB484619
:101CB00003F0AAFA504605F0D1FF2B687178D86975
:101CC0005A8C807E00FB01225A8409B0BDE8F08F57
:101CD00084000020114B1B6870B4DD69EB6943B1CF
:101CE0001A88904202D35C88844205D29B68002BFC
:101CF000F6D1184670BC7047821A5E68AC7E06EB5F
:101D0000C2035B7813FB04F00029F3D016F83230DD
:101D100014FB03F370BC0B60704700BF840000200D
:101D200001230B80704700BFC06950B103888B420C
:101D300002D843888B4203D280680028F6D17047CE
:101D40000120704700B9704709F0C8BE08B90020EB
:101D50007047F8B5064609F0C1FE044638B3154D84
:101D60003246154F0021E8696B6B013003EBC40666
:101D7000E86113F83400013003F8340076683B68FA
:101D800006F10800984731686A6B12F83130012B70
:101D900001D9E86920B9013B204602F83130F8BD8D
:101DA0000138013BE861204602F83130F8BD0020DF
:101DB000F8BD00BF04C501203001002021F003015F
:101DC000014B83E80300704724C2012000B970472B
:101DD00070B50A4CC6000546636B334459684868C1
:101DE00009F0CEFC6368626B0021606A013316441F
:101DF0006360706002F83510656270BD04C5012033
:101E000028B1034AD36B036003B15860D0637047B5
:101E100004C50120F8B50468054694B10A4EE700F0
:101E2000736B3B445968486809F0AAFC7368726B8D
:101E30000020716A013317447360796002F834003E
:101E4000746200232B60F8BD04C5012000292ADD3F
:101E50002DE9F04700258A46041F134FA94603E0E9
:101E6000AA45C4F800901CD054F8046F0135002E28
:101E7000F6D04FEAC6087B6B43445968486809F0BE
:101E80007FFC7B68796BAA457A6A03F10103884479
:101E90007B60C8F8042001F836907E62C4F8009098
:101EA000E2D1BDE8F087704704C50120F8B58B4E3C
:101EB000044696F82830002B2FD00334356CF26B93
:101EC00024F003040434A54238BF254662B152F819
:101ED000043C14469D4204D114E054F8043C9D4255
:101EE00010D02468002CF8D1F368B46B1C4454F86B
:101EF000041C611A0B68002B68D14B689D426FDD92
:101F0000002408E023680BB161685960616801B181
:101F10000B60A24256D02046F8BD714B01219A6851
:101F200086F8281058680AB982089A605A27102241
:101F300020254FF0400E3762802732644FF48072C4
:101F4000B5644FF400751968C6F850E04FF4806E20
:101F5000B7654FF4006732664FF48052B5664FF4B0
:101F60000055A1F11403C6F870E0B7674FF4804E36
:101F7000C6F880204FF40047C6F888504FF48032EE
:101F80004FF400350344C6F890E04FF4802EC6F8B5
:101F900098704FF40027C6F8A0200222C6F8A85077
:101FA0000125B1637363C6F8B0E03261F060C6F832
:101FB000B8705D607562756009F0E2FB0CF026FA9E
:101FC00035637AE723682046F363F8BD00200EF0FE
:101FD000CDFB54F8041C611A0B68002B90D18CE7E0
:101FE000581BD6F8B8703D4A041DBB420C4472D24F
:101FF000D2F8B070BB426CD2D2F8A870BB4266D2A5
:10200000D2F8A070BB4260D2D2F898709F425AD9E1
:10201000D2F89070BB4254D2D2F88870BB424ED2F4
:10202000D2F88070BB4248D2926F934243D2376F4E
:102030002A4ABB423DD2976EBB4238D2176EBB4292
:1020400033D2976DBB422ED2176DBB4229D2976C0B
:10205000BB4224D2126C93420CD2F2687369521BB9
:102060002B44F260736110B944F8045C53E709F043
:1020700087FBF9E700223768D1F808E0FF1ACB6840
:102080003760BEF1000F01D0CEF8043013B1C3F8B1
:1020900000E0E2E706EBC202C2F844E0DDE701221D
:1020A000E9E70222E7E70322E5E70422E3E7052266
:1020B000E1E70622DFE70722DDE70822DBE7092266
:1020C000D9E70A22D7E70B22D5E70C22D3E70D2266
:1020D000D1E70E22CFE70F22CDE700BF04C50120D4
:1020E00024C20120F8B54A4C94F82830002B3DD08A
:1020F000D4F8BC30464A3BBBD2F8B43023BBD2F84C
:10210000AC300BBBD2F8A430F3B9D2F89C30DBB9B9
:10211000D2F89430C3B9D2F88C30ABB9D2F884304D
:1021200093B9D36F83B9536F73B9E36E63B9536EC9
:1021300053B9D36D43B9536D33B9D36C23B9536CD1
:1021400013B96FF00B00F8BD9B68002BF9D000228B
:1021500001E09B6843B159681046914201D90A4693
:1021600008469B68002BF4D10C38F8BD294B01219F
:102170009A6884F8281058680AB982089A605A2622
:102180001022202540272662802622644FF4807288
:10219000A5644FF40075196827654FF48067A6653C
:1021A0004FF4006622664FF48052A5664FF4005546
:1021B000A1F114032767A6674FF48047C4F8802075
:1021C0004FF40046C4F888504FF480324FF4003585
:1021D0000344C4F890704FF48027C4F898604FF41B
:1021E0000026C4F8A0200222C4F8A8500125A1634B
:1021F00063632261E060C4F8B070C4F8B8605D60E9
:102200006562656009F0BCFA0CF000F925636FE7C0
:1022100004C5012024C2012030B1044B5B6B03EBE9
:10222000C000436858680C38704700BF04C50120DF
:10223000084AD169536B013110B4D16103EBC0047A
:1022400013F83020013203F8302060685DF8044B49
:102250000830704704C5012009B9084670472DE9C8
:10226000F047064608468A4609F038FC044600282E
:102270005AD0002E58D02E4DF700DFF8B8C06B6B47
:10228000E969DA1913F8300003EBC40E0231D2F811
:1022900004800130D8F8042003F834000C3ADEF84A
:1022A0000490E96108F1080113F836E0524509F19C
:1022B00008000EF1010EA8BF524603F836E0DCF824
:1022C00000309847D9F800106B6B13F83120012AC1
:1022D00003D9E86908B10138E861013A03F831200F
:1022E000D8F8001013F83120012A06D9E869DFF880
:1022F00040E010B10138CEF81C00D819013A03F8BB
:1023000031204168486809F03BFA6B68696B4FF00F
:10231000000E6A6A01330F4420466B607A6001F850
:1023200036E06E62BDE8F0872046BDE8F08700BF6A
:1023300004C501202C010020F8B5544C94F8283035
:10234000002B51D0D4F8BC30504A83BBD2F8B43003
:102350006BBBD2F8AC3053BBD2F8A4303BBBD2F845
:102360009C3023BBD2F894300BBBD2F88C30F3B93D
:10237000D2F88430DBB9D36FCBB9536FBBB9E36EFE
:10238000ABB9536E9BB9D36D8BB9536D7BB9D36C1D
:102390006BB9536C5BB96FF00B033D49DA1781FBE6
:1023A0000313C2EB6313206A00FB03F0F8BD9B68C4
:1023B000002BF8D0002201E09B6843B15968104619
:1023C000914201D90A4608469B68002BF4D10C388B
:1023D000B0F5800F0346E0D8226A2D4B02FB00F0D7
:1023E000A3FB00235809F8BD2A4B01219A6884F801
:1023F000281058680AB982089A605A2610222025A7
:1024000040272662802622644FF48072A5644FF430
:102410000075196827654FF48067A6654FF400665C
:1024200022664FF48052A5664FF40055A1F11403C3
:102430002767A6674FF48047C4F880204FF4004612
:10244000C4F888504FF480324FF400350344C4F888
:1024500090704FF48027C4F898604FF40026C4F8B9
:10246000A0200222C4F8A8500125A1636363226161
:10247000E060C4F8B070C4F8B8605D606562656023
:1024800009F07EF90BF0C2FF25635BE704C501206C
:102490001F85EB5124C2012003680B4A30B4044667
:1024A00053F8085C506B10F83530012B03D9D16913
:1024B00009B10139D1610022013B00F835301046E5
:1024C000226030BC704700BF04C50120034B5B6B2A
:1024D00003EBC00040680830704700BF04C501200E
:1024E0002DE9F041064610461446884600F0A2FE4B
:1024F000C8B9A700184D3B1905EB8303DA68B2424F
:1025000004D11B69434501D1BDE8F0813B1905EBBE
:1025100083035869B0B93C4405EB8404E660C4F811
:102520001080BDE8F0810C4B04EB840403EB8404C1
:1025300063689A685968C2EB0802711ABDE8F041F5
:1025400002F084BE5B689A685968C2EB0802711A8F
:1025500002F012FBDFE700BF80C40120C3B2CAB2A1
:102560009A1A92B210B414B2002C1EDBC1F30722E7
:10257000C0F307239B1A9BB21AB2002A12DB090C84
:1025800002FB02F2C1EB104104FB042089B20CB241
:10259000002C01DA49420CB2A1B25DF8044B01FBF8
:1025A000010070475B421AB2E9E7524214B2DDE71C
:1025B00000212DE9F041084682B000F0ABFE042076
:1025C00005F04CFB144B154F43F6FF761B69804614
:1025D0003D463446DA6C68461B6D174416441D446C
:1025E0001C44ADF80070ADF80460ADF80250ADF8D1
:1025F000064008F089FA48B1234632462946384653
:1026000004F074FE08F022F90028F5D1404605F0E8
:1026100025FB02B0BDE8F0817400002001C0FFFF7F
:102620002DE9F041074682B0042016461C460D46AF
:1026300005F014FB124B804668461B69DA6C1B6D73
:10264000174416441D441C44ADF80070ADF80460F6
:10265000ADF80250ADF8064008F056FA48B12346EE
:1026600032462946384604F041FE08F0EFF80028CB
:10267000F5D1404605F0F2FA02B0BDE8F08100BFA6
:1026800074000020034604202DE9F04182B0B3F924
:102690000070B3F90260B3F90450B3F9064005F0D5
:1026A000DDFA124B804668461B69DA6C1B6D1744D5
:1026B00015441E441C44ADF80070ADF80450ADF84C
:1026C0000260ADF8064008F01FFA48B123462A46DA
:1026D0003146384604F00AFE08F0B8F80028F5D173
:1026E000404605F0BBFA02B0BDE8F081740000205E
:1026F0002DE9F047044682B00D461646002B37D030
:102700009A46009651460B9B204626680A9AB04787
:10271000074618B9384602B0BDE8F08706F0E6FC77
:10272000618A8046384605F0BDFE013D384607F017
:1027300083FE404607F080FE002D1DDD4FF00009AE
:1027400003E007F079FE013D16D054F81C6F00231A
:10275000CDF80090414620461A46B047064600286C
:10276000EFD1384606F04EFA304602B0BDE8F087A9
:1027700006F0CAFC8246C4E740461D2107F022FD50
:10278000BAF1FF3FC6D006F0E3FC40B9BA450CD021
:10279000384607F07DFD3846BDE70028F8D0FFF742
:1027A00095FE80698742F8D1B4E75046B3E700BF91
:1027B000012B17DC2DE9F04107461C2090460D4601
:1027C0001E46FFF773FB0446D0B16DB105610023CF
:1027D0002046A661A4F81480E76023606360A360CC
:1027E000BDE8F08100207047074B53F826200AB956
:1027F000EDE71A461368002BFBD113692361E6E766
:102800000020BDE8F08100BFE0C50120012B3BDCCA
:102810002DE9F84381461C2090460F461E46FFF7DF
:1028200045FB054600287FD0414A002F31D00023C8
:10283000DFF804E152F8264003609EF800100761BB
:102840008E428661A0F81480C0F80C9043608360CB
:1028500002DB731C8EF80030002C5DD021464C68E2
:10286000002CFBD1D9F80000CB681B6883422CDD1B
:1028700009680029F8D148B92E4B163628461A683F
:1028800042F82650BDE8F883002070472846BDE88E
:10289000F88352F82610002930D0084600E0184688
:1028A0000368002BFBD10069DFF88CE02B60286106
:1028B0009EF80000AE618642A5F81480C5F80C9021
:1028C0006B60AB60CBDB0C46C3E70AD04B6843B30D
:1028D0001D606B608D4214BF0B4600234D602B6062
:1028E000C9E7B8F1010FF1D104E0DC6819462368AB
:1028F0008342EBDB0B68002BF7D1E7E7DFF838E02A
:1029000001609EF8003086619E42A0F81480C0F8F5
:102910000C9041608160D6DA42F82650D9F8000068
:10292000A9E742F82650D5E70020BDE8F88300BFAC
:10293000E0C5012084000020D9C50120FFF760BA5E
:1029400000283DD070B48469012C03DD01231846B2
:1029500070BC70471F4B1A78944221DA1E4D55F80F
:1029600024300BB932E013465A68002AFBD1C26802
:10297000116802E01B68002BE8D0DA681268914207
:10298000F8DB10D05A68F2B110604260984214BF70
:102990001A460022586000230260184670BC704737
:1029A000621C1A70DAE7828A012AEBD104E0D66849
:1029B000134632689142E5DC1A68002AF7D1E1E754
:1029C00001231846704745F82400DFE745F8240046
:1029D000BDE700BFD9C50120E0C501200F4A8169CC
:1029E00052F8213098420AD042680AB10368136055
:1029F000036803B15A6000230360436070470368B3
:102A000042F821302BB100225A604268002AEED1F0
:102A1000F0E74268002AEAD1EDE700BFE0C50120F7
:102A200001280EDC084B53F8200058B1C3681B681E
:102A30001BB908E0C3681B6823B100680028F9D1FE
:102A40007047002070477047E0C5012000B970470B
:102A50002DE9F04182B01E4615460C460746FFF7A9
:102A6000E7FB02AB026843F8040D1846D2F8008079
:102A7000FFF712FD33462A4621463846C04702B0CA
:102A8000BDE8F08170B50546094E0FF065FA0544C2
:102A900007E000F0FBFA3068A042A8BF20460FF024
:102AA00051FA0FF059FA2C1A002CF2DC70BD00BF5D
:102AB000900000202DE9F04F484D83B0044600F00F
:102AC000C9FB2B680646B3F9228000F0FBFB2B689C
:102AD0001FFA80F99A8CC9EB020212B29A8421780B
:102AE00000294FD0B6B22F4647F6FF71204603F0BB
:102AF000ABFD01468346204603F066FD29688B8DB9
:102B000003F00303012B58D0022B5AD01FFA80FA8E
:102B10004FF0000E4B8C0AF1FF3CB1F92420CEEBB4
:102B20000303ADF80220013A9BB2B0186A460FFACF
:102B300083FE6344ADF806002046A1F822E0594622
:102B4000ADF800E0ADF8043003F0B0F82B68204693
:102B5000BDF8022059469A8402F0F6FC235C044436
:102B60000A2B19D00D2B17D0BDF800003B6882440A
:102B7000A3F822A022781AB162780134002AB3D1D6
:102B8000B3F92420998D914421F00302A3F82490F5
:102B90009A8503B0BDE8F08F2B689A8D02F003028E
:102BA000013A012A16D8A3F8228022780A2AE2D113
:102BB0009A8C32449A842278DDE71FFA80FEF2462E
:102BC000A8E7002803461FFA80FAB8BF431CC3F3E6
:102BD0004F0E9FE71A8C5A84E7E700BF840000205D
:102BE000034B1B6859849A8408B1FFF763BF704791
:102BF0008400002000B3F0B5054683B016460C46AD
:102C0000C1B1084607F00CFC074638B10246214620
:102C1000684603F091FD684607F002FC3246214603
:102C2000284647F6FF7303F0A3F8384607F0F8FB91
:102C300003B0F0BD0F46F1E7704700BF08B100F0E8
:102C400001B870472DE9F04F89468BB01F46B1F9A6
:102C50000030B1F90410154600930446CE1AB9F9B4
:102C60000630059201910136B9F902B0039300F0E4
:102C7000F1FA15F00C05029019D0A2463A463146F9
:102C80004FF00008504603F031FF48B182443A4605
:102C9000314608F10108504603F028FF0028F5D11D
:102CA000082D79D00C2D00F08280042D74D0BDF851
:102CB00008A0484607F0B4FB02460490A8B100996A
:102CC000002506A82B4661F30F0501996BF31F45FC
:102CD00061F30F030399069561F31F434946079378
:102CE00003F02AFD06A807F09BFB059B1FFA8BF556
:102CF00003F003080AF1FF3302934346B0461E4631
:102D000015E0022E34D01EB9B9F80030ADF82030ED
:102D10002046594608AA554402F0C8FF20463A46C4
:102D2000414603F0E3FE0444ADB2237873B33A4660
:102D30004146204603F03CFFBDF80020029B83463D
:102D4000ADF820202046EB18BDF804205946ADF818
:102D50002250ADF82420ADF8263003F035FC012ECA
:102D6000CFD1B9F804300133181AADF82000CFE7FD
:102D7000B9F90010B9F904305B1A181A013048BFCC
:102D8000013001EB6000ADF82000C1E7049807F0C6
:102D900047FB0BB0BDE8F08FBDF808A0039B18FB04
:102DA0000AF85D1CC8EB05050FFA85FB81E7039B5C
:102DB000029ACBEB0303BDF808A0013308FB1238DD
:102DC000B8F1000FB8BF08F101080BEB68050FFA66
:102DD00085FB6EE72DE9F04F654C91B02468E56CFA
:102DE000246D2818AA186118E318064607900EA843
:102DF00008920D46029101931C46ADF83860ADF87B
:102E00003C20ADF83A10ADF83E3007F07DFE0028CA
:102E100000F09580C5EB040B1A999DF86820C1F36A
:102E20000724BBF1000F1B995B46B8BF0BF10103F0
:102E30000BFB02FEC1F307271A995B109DF86CC0CB
:102E4000C1F307401B9903EB0E05C1F307461A991E
:102E50000A95090E0BFB04353C1B0B9503940BFBE9
:102E60000034301A0BFB01335E460C940D931B9B10
:102E70000490C1EB13630593C2EB0C03069300F0BF
:102E8000D1F91A9B1B9A0990934267D0002E52D019
:102E9000029D019A954259DC0AAF86464FF0010B1C
:102EA00097E8800706E00BF1010B0135019BA64670
:102EB000AB422FDB70469AFBF6F499FBF6F197FBD9
:102EC000F6F398FBF6FC2206059C43EA0C23A24489
:102ED00042EA0144049A1C43029B9144069AAB4285
:102EE0001744039A9044E0DA7445DCD004F084FE81
:102EF000BBF1010FCBEB050105F1FF33089A0798F1
:102F000020D004F0F3F90135019B4FF0010BA646E8
:102F1000AB42CFDA204604F06FFEBBF1010F17D0B1
:102F2000019B089ACBEB03010798013104F0DEF90D
:102F3000099804F061FE07F089FC00289FD111B0C8
:102F4000BDE8F08F691E04F04FF9AEE704F054FEBF
:102F5000089A0199079804F047F9E9E7184604F040
:102F60004BFE019B089A0299079804F0BFF9DFE72E
:102F700084000020F0B5114F83B03B681D6DDC6C00
:102F800005446846661814442BB2ADF80060ADF8ED
:102F90000440ADF80230ADF8063007F0B5FD50B191
:102FA0003B682246294630465B6E1B68984707F00F
:102FB0004DFC0028F4D103B0F0BD00BF8400002018
:102FC0002DE9F0431E4C83B025682E7E2F6DEC6CEE
:102FD000013E07EB010907EB030825181444B2B2C0
:102FE0006846AE1A1119C2EB09034244ADF80060FD
:102FF000ADF80410ADF80230ADF8062007F084FDFE
:10300000D8B109F1010708F1FF36224649462846A2
:1030100004F0EAF822464146284604F0E5F8324634
:103020003946284604F03AF932463946204604F03B
:1030300035F907F00BFC0028E7D103B0BDE8F083B9
:1030400084000020104B1B6870B5DD6C82B01C6DD5
:1030500005446846661814442BB2ADF80260ADF81A
:103060000640ADF80030ADF8043007F04DFD40B13A
:1030700022463146284604F011F907F0E7FB002804
:10308000F6D102B070BD00BF840000202DE9F041F0
:103090000025124F124EDFF84C803C681CB1A0474F
:1030A000041C18BF012405F0C9FE3368002818BFAE
:1030B00001244BB1984738B1D8F8003013B101243E
:1030C00098473CB10125E8E7D8F80030002BF7D14C
:1030D000002CF7D12846BDE8F08100BF04C60120CE
:1030E00008C6012000C60120F0B5104C83B024684A
:1030F000E56C246D2F18154466181C446846ADF81D
:103100000070ADF80450ADF80260ADF8064007F06D
:10311000FBFC48B123462A463146384604F0E6F81F
:1031200007F094FB0028F5D103B0F0BD8400002027
:10313000002850D0C388013B10B5848880681F2BBD
:1031400047D8DFE803F0162346314646463C46465C
:103150004646464646404646464646464646464615
:10316000464646464610A31002FB031150F82100C4
:1031700010BD02FB04F200EBD104C843A35C00F0D5
:10318000070023FA00F000F0010010BD02FB04F27A
:1031900000EB91046FEA4100A35C00F0060023FA03
:1031A00000F000F0030010BD02FB04F200EB51043C
:1031B000CB07A05C4CBF00F00F00000910BD02FB64
:1031C0000404605C10BD631002FB031130F81100B1
:1031D00010BD002010BD7047034B082153F820009C
:1031E000C3689B6A184700BFE0C5012008B504F01A
:1031F000BDF8BDE8084004F089BA00BF024B0021C9
:103200001B68DB695B68184784000020024B1B6861
:10321000DB695B68184700BF8400002008B105F037
:1032200057BF704708B504F0A9F8BDE8084004F09E
:103230006DBA00BF012801D900207047014B53F837
:103240002000704758C30120014B1B68187C704751
:1032500084000020024B1B68DB69587E704700BF6A
:103260008400002038B50D46144604F025F910B14D
:1032700000232B60236038BD044A054BB2F90020BF
:10328000B3F9003002600B60704700BFCAC501206F
:10329000CCC5012010B5044603F0FEF901462046D6
:1032A000BDE8104003F090B90EF056BE044B342236
:1032B000352061219A70187018461971DA707047BC
:1032C0006C0000200A4B1A68938D03F00C03082B46
:1032D00005D00C2B03D0042B05D000207047D369F8
:1032E000187E40087047D369187E0138704700BFC8
:1032F00084000020024B53F820301B691868704787
:10330000E0C50120024B53F820301B695868704714
:10331000E0C50120024B1B68588400209984704747
:103320008400002090B583B000AF534A524B1B6815
:1033300023F001031360514B1B68C3F30A0340F2EF
:10334000494293420CBF01230023DAB24B4B1B6866
:10335000C3F30A0340F251418B420CBF0123002307
:10336000DBB21343DBB21946444B1B68C3F30A03B9
:1033700040F2524293420CBF01230023DBB20B43C5
:10338000002B10D03E4B01221A6000BF3C4B1B6843
:10339000002BFBD13B4B3C4A1A603A4B1B683B4A23
:1033A000934218D0FEE73A4B1B68C3F30A03B3F508
:1033B0008A6F10D1374B01221A6000BF354B1B6852
:1033C000002BFBD1344B304A1A60334B1B682F4A19
:1033D000934200D0FEE702F029FC304B2E221A70F7
:1033E0000EF0C0FD2E480CF05DFB0EF05FFA786029
:1033F00004F0DCF80346002B0CBF01230023DCB2F1
:1034000004F01AF90346002B0CBF01230023DBB2A2
:103410002343DBB2002B09D004F0DEF8044604F0AD
:1034200021F903461946204604F012FC0021002031
:1034300001F00EFF06F072F91A4B1B68002B12D038
:103440000DE0184B1B681B68002B03D0154B1B6845
:103450001B689847134B1B685B68124A1360114B3B
:103460001B68002BEDD1104B01221A707B681846A7
:103470000C37BD4690BD00BF002000E0002004E0F6
:103480000830024000300240C2A507F4CDB5E8B5CF
:103490000010005C084C0258004C0258C8C50120BE
:1034A00038C20120B0C20120D8C5012010B582B0B9
:1034B00028B90F4B1B68186E08B902B010BDFEF793
:1034C000B7FE02AB446943F8080D1846FEF7E4FF67
:1034D000002CF2D0204602ACFEF7AAFE826844F827
:1034E000040D936898472046FEF7D6FF02B010BD42
:1034F0008400002000B97047014A114600F002B86C
:1035000001F0FFFF2DE9F047DFF8F08084B00646B8
:1035100000200C46154601F079FED8F800308146AF
:1035200030461F6EFEF784FE03680090986901F034
:103530004FFE314B82469C42009B4DD01A895B89DD
:10354000013AADF80840013BADF80A5022442B4443
:10355000ADF80C20ADF80E3005F0ACF96846FEF77A
:103560009BFF02A807F0D0FA18BB504601F030FECE
:10357000002F39D0D8F800301B6E93BB05F008FB44
:103580003846FEF755FE04ACD8F8003044F80C0D70
:103590001F660068FFF7D4F92046FEF77DFF04F0B0
:1035A00009FC04F01BFB484601F030FE04B0BDE806
:1035B000F0872A462146304600F07CFC07F046F9A9
:1035C0000028D2D02A462146304600F073FC07F08E
:1035D0003DF90028EDD1C8E7B3F90440B3F906502E
:1035E000ACE701F0EBFDC9E701F0E8FD484601F06A
:1035F0000DFE04B0BDE8F08701F0FFFF840000205D
:103600002DE9F0431C4D0F4606461C4C296885B039
:1036100090469946487C54F8204001E02468DCB18B
:10362000E3681A68042AF9D1DB6A01212046984729
:103630000546B8B12469A3689847013016D00C99A3
:103640004B4642460294009139460195304600F0BF
:10365000ADFA05B0BDE8F083FFF7E2F9044608B122
:10366000C368E1E7002005B0BDE8F0830C9B044C83
:1036700043F001030C93E2E784000020E0C5012041
:10368000D0900108C0B1114B1B681B6E984210B559
:10369000044682B016D02046FEF7CAFD4369019069
:1036A0005BB90068FFF74AF901A8FEF7F5FE20466E
:1036B000FEF78CFB02B010BD7047184602F04EF8C2
:1036C0000198EEE701F07AFDE5E700BF84000020F5
:1036D0002DE9F04FDFF864B1894604465548DBF820
:1036E00000101E4687B092464F7CC3573846012BC8
:1036F00040F38E8003F060FF0546384603F0A2FFDA
:103700000746002C00F0818005A904A8FFF7B4FD4E
:10371000049A059B1544B4F900201F44B4F9023003
:1037200022EAE272013D23EAE373013F114602926D
:103730001846B4F9042003939542D4BFC1EB0501A8
:10374000C1EB0201B4F9063002460D469F42D4BFD8
:10375000C2EB0702C2EB030201351746013706B977
:103760007E42002D4DDD002F4BDD109B2A46039934
:10377000009333460298FFF743FF804600284FD05E
:1037800000F08AF88742064604D0DBF80030986CD7
:1037900000284BD140463D46002400F07DF90EE064
:1037A000AD1BACB950463444C847234BFF201B68BF
:1037B00003B198474046FFF79DFEA74212DDAE4297
:1037C000EEDD2946404600F04DF9AD1B002CE9D056
:1037D000039B40460299E21800F088F94046FFF743
:1037E00065FEDFE74046FFF74DFF002000F054F98B
:1037F000B74206D0DBF80030986C10B1332107F0E7
:10380000D1FE002007B0BDE8F08F03940294A6E734
:1038100003F07CFE0546384603F0A2FE074670E73B
:103820005046C847012007B0BDE8F08F322107F0AD
:10383000B9FEAFE7DCC501204CC4012084000020A4
:1038400030B583B018B90446204603B030BDFEF74A
:10385000EFFC036802AD1B6945F8040D9B689847AF
:1038600004F0C8FB04462846FEF716FE204603B0C7
:1038700030BD00BF70B110B582B0FEF7D9FC00F1C9
:10388000180402AB43F8040D1846FEF705FE204667
:1038900002B010BD704700BF10B582B060B1FEF736
:1038A000C7FC02ABB0F90A4043F8040D1846FEF716
:1038B000F3FD204602B010BD044B1B68186E0028B3
:1038C000EDD10446204602B010BD00BF84000020A8
:1038D0002DE9F04F804687B0002758E0002E7ED1BA
:1038E00005F012FC804500F09A80584B01264946AD
:1038F000224602935846564B009601932B4600F001
:1039000055F981464046FEF793FC03460590C0F802
:103910002490B9F1000F79D0826A05A8DFF840B190
:1039200042F480329A62FEF7B7FD484600F0B4F8E0
:1039300082463046474E01F075FF4846FFF79AFF32
:10394000454B05FB04F2454C197892003568A847B1
:1039500040462568CBF8008005F028FC20604046F2
:1039600007F0E8FC002225601046CBF8002001F0AB
:1039700059FF504600F090F84046FEF7A7FD406A18
:10398000B0FA80F35B090137042F22DC0BB3404609
:10399000FEF74EFC034605A8B3F900B0B3F9029058
:1039A000B3F90440B3F90650CBEB04040593C9EB1B
:1039B00005055E6A0134FEF76FFD0135002DC8BFB5
:1039C000002CD4BF0123002388DC01370020042F02
:1039D000DCDD08B100F0BCF807B0BDE8F08F304680
:1039E000FEF726FC034606A8B3F9065040F8083D4A
:1039F000B3F90440FEF750FDA94501D1A345BBD062
:103A00004A465946304600F071F8B5E705A8FEF77A
:103A100043FD404607F08EFC33464846B3E703F0CB
:103A2000AFFD064603F0F2FDB44202DC85427FF7AB
:103A30005CAFB442A8BF34468542A8BF05462146C4
:103A400040462A4606F0C0FC4FE700BFD090010870
:103A5000D4D601083001002050C4012000C5012047
:103A600088CA012010B50C4682B060B1FEF7E0FBB9
:103A7000B0F90A300190A342C8BF448101A8FEF703
:103A80000BFD02B010BD034B1B68186E0028EDD172
:103A900002B010BD84000020F0B5134F83B03B6826
:103AA0001E6ED8B10446B6B905F072F82046FEF78E
:103AB000BFFB02AD3B6845F8040D1C660068FEF7CD
:103AC0003FFF2846FEF7E8FC04F074F904F086F89E
:103AD000304603B0F0BD01F071FBE5E701F06EFB8D
:103AE000304603B0F0BD00BF8400002030B50C4666
:103AF00083B028B9154B1B68186E08B903B030BDE8
:103B000015B224B2FEF794FBC5808480009004F0C7
:103B100065F8009B586920B96846FEF7BDFC03B004
:103B200030BDFEF785FB009B0190B3F90820B3F987
:103B30000A308280C38013B10AB10480458001A895
:103B4000FEF7AAFC6846FEF7A7FCE8E78400002021
:103B500000B9704770B584B00446FEF769FB0146B2
:103B600001A8B1F90460B1F906500A894B893244C1
:103B700001912B44ADF80860013AADF80A50013BC1
:103B8000ADF80C20ADF80E30FEF786FC02A806F06A
:103B9000BBFF40B12A463146204600F06DF906F0E1
:103BA00055FE0028F6D104B070BD00BF2DE9F04FDE
:103BB000DFF82C8187B082468B46D8F80000174684
:103BC0001E461299437C00221198FEF7F1FD002851
:103BD0004DD0036905469B68984704F00BFA00FB3B
:103BE00007F48146FEF7A8FB109B073413F001038E
:103BF0004FEAD4043FD0002E2CDD002B42D004FB32
:103C000006F01830FEF79EF8024668B300230293D0
:103C100010460392FEF70CFB029A034606A8A3F88F
:103C200004A0A3F806B01F815E81DC60C3F8109089
:103C30005A6140F8043D1D60FEF72EFC129AD8F838
:103C400000302A61039A1046AA605B7CAB6107B022
:103C5000BDE8F08F002C34D1204676428642A8BFC2
:103C6000064693B3002ECADC2846FEF767FE002006
:103C700007B0BDE8F08F0028B8BF0330801000EB1C
:103C80004000B8E700933A4633465946504601F0A3
:103C9000DBFC029004FB06F01830FEF757F80246F2
:103CA0000028B5D128460392FEF748FE029B002B60
:103CB000DDD01846FEF78AF8039A104607B0BDE833
:103CC000F08F1838B0FBF4F0C7E700933A4633465C
:103CD0005946504601F0B8FC002E0290DADCC3E7EA
:103CE000840000202DE9F04FDFF880918BB05D4B10
:103CF000D9F800C0DFF878819CF811E053F82E4025
:103D0000D8F80030D4F810E0002B00F0A68016465A
:103D1000DCF8602007460D46002A75D0E26812687C
:103D2000072A78D0504AC2EB0E02B2FA82F2520948
:103D3000002A70D03846FEF77BFA03460AA8B3F98A
:103D400008B040F8083DB3F90AA00BEB0504DB68A6
:103D5000013C0593FEF7A0FBD9F80010B1F90C3037
:103D6000B1F90800E41A002CCCBFC4EB0B045C468C
:103D700085425EDB0023002C43DD0AEB0600B1F92F
:103D80000EE00138CEEB00000028C8BFC0EB0A0AE5
:103D9000B1F90A00B04247DC0021BAF1000F0793E5
:103DA00006912EDD3846FFF765FD079BD9F8002008
:103DB000069901FB0B31136E00EB8107002B3CD001
:103DC0001846FEF735FA02460AA8B2F90410B2F90D
:103DD00006306D1A40F8042DF31AA900D56801F1D8
:103DE000180605FB03661644FEF756FB4EB1059B0D
:103DF000224600953946019330465346D8F8004094
:103E0000A0470BB0BDE8F08FE2681268B2FA82F208
:103E10005209002A8ED173463246294638460DF0A3
:103E2000F3FA0BB0BDE8F08F811B0646C1EB0A0A1E
:103E3000B3E7431B0546E41A9DE7507C4FEA8B022B
:103E4000DFF830E03B4602922946CDF804A0324626
:103E50000094DEF80040A047D3E773460DF0D4FA93
:103E6000CFE700BFE0C50120D0900108840000200A
:103E7000ECC50120E8C501202DE9F04182B00F46D4
:103E800090460646FEF7D4F9034602AC16211D689B
:103E9000002044F8043DEB685B6A984705462046DD
:103EA000FEF7FAFA1DB1424639463046A84702B03D
:103EB000BDE8F08100B970472DE9F04FA3B08B4603
:103EC00092460446FEF7B4F922AB456943F81C0D4F
:103ED0001846FEF7E1FA2046FFF7B2FC08288146B3
:103EE00040DD002D3ED12046FEF7A2F922AA03466E
:103EF000B0F9081042F8100D10460D92B3F90A20DF
:103F00000A9109921968DA680E690B930E92FEF70E
:103F1000C3FA924892490068D6F80480407C51F870
:103F200020100D692B680C93FFF756F908280B9B9E
:103F300014D910288BBF20221022042702270B92AD
:103F4000AE4200F0F882B9F1200F00F0B381B9F170
:103F5000100F00F0458123B0BDE8F08F0822012743
:103F60000B92EDE70021012320467C4E20910DF1BC
:103F700088080B9121930A93FEF75AF90746306897
:103F80003A68FB68B7F908101269139314913B69FA
:103F9000B7F90A10407C0993169148F8147D5568CA
:103FA000D7F81490FFF718F932680E90507CFFF79D
:103FB000A9F907464046FEF76FFA099A0A9B082AB4
:103FC0000B9940F29D80102A13460A918CBF04235E
:103FD00002230C93BD4200F0C1813368587CFFF787
:103FE00089F9149B06469800FDF7ACFE1090002856
:103FF000B1D02046FFF73EFC0446B9F1000F00F0B7
:1040000088804846FEF714F9169B1E90002B40F35B
:10401000A1810023DDF83880CDF834A00B93139BE9
:10402000CDF848B0E31815931FAB19460F9383687A
:1040300000225B691F920B9A9847159B139A0446BE
:104040009B1A0E93149B834200F0F680099B012B70
:1040500000F08880002842D01CAB11931098FEF726
:10406000E7F8099B07461C90082B1F9A65D90C9B03
:10407000A3460E99824602FB031939F8020BA847A2
:10408000B047BBF1010B4AF8040BF6D1B8F11F0F92
:1040900004D838464246214601F02EFC0A990123F5
:1040A0001F982246059112991C9F084400210193F4
:1040B00000930391CDF808800D99049702F00EFF4C
:1040C0001198FEF7E9F91F9B1E981C440B9A836810
:1040D0000F991F945B69984704460028BED1159A32
:1040E00013990B9B0A44013315920D9A0B930132DD
:1040F0000D92169A9A4200F02D811E980F9996E71C
:10410000012A03D120AB0C920A9363E70C930A9126
:1041100060E701250A9B139A099905930490584674
:10412000039202915146169B149A0195009502F054
:10413000D5FE1098FDF74AFE0DE70C9BA2460E999E
:10414000814602FB031B1BF8010BA847B047BAF1DD
:10415000010A49F8040BF6D198E700BF840000205B
:10416000E0C501200028BAD0CDF8608019960B9FD9
:104170000A9EDDF83880DDF83490DDF848A0DDF8DF
:104180003CB017951192DDF87CE02246119D012389
:104190000EF0070049460395012506900AEB0E0034
:1041A000BEF1000F05960295B8BF0EF1070E0195FE
:1041B000009508EBEE0ECDF810E003F00DFE1F9B0E
:1041C0001E983A461C44594683681F945B69984779
:1041D00004460028D7D1179DDDF86080199E7EE740
:1041E0000A9B03FB07F0FDF7ADFD109000283FF49C
:1041F000B2AEFEF71DF820902046FEF719F800F148
:1042000018031E900E932B69002B00F0A681736992
:10421000002B00F0A281B0F908008000FDF792FDAC
:104220001190002840F0BA811F900D98FEF734F9E4
:1042300020A8FEF731F97CE71098FDF7F9FF099BFC
:1042400081461C90082B149F0446DDF838A028D91D
:104250003AF8020BA847B047013F44F8040BF7D1E6
:10426000B8F11F0F04D848464246149901F044FBA8
:1042700022AB12980D991A460A9B059300230393CB
:10428000012352F818EDCDF8088017460193149ACF
:104290000093CDF810E002F021FE3846FEF7FCF85E
:1042A0001DE71AF8010BA847B047013F44F8040B7B
:1042B000F7D1D5E70A9B07FB03F0FDF743FD0E900E
:1042C00000283FF448AEFDF7B3FF20902046FDF7ED
:1042D000AFFF1E902C6900F11808002C00F0EB8055
:1042E0000A9A5C4601260A954FEA82099346CDF860
:1042F0003090DDF8249017E0042F21D0012F15D045
:104300000B9B0020209D51460293012305905A46A5
:104310000390204601969A440096049502F0DEFD33
:10432000B9F1010900F0E880022FE5D10C9D40466B
:104330003B465A46A8440A9D20992D69A847DFE7C5
:104340000C9B40460A9D5A46984420993B462D694D
:10435000A847D5E71EA8FEF79FF8EAE62046FFF734
:1043600089FA8046B9F1000F00F0D4804846FDF785
:104370005FFF169B1E90002B40F3C88000261FABEA
:10438000CDF834A00125B146DA461F46836832468F
:10439000CDF87C9039465B699847149B044683426C
:1043A00031D0099B012B57D020B30D9B0B9603EB0B
:1043B000060B1F9801230C990A9A01FB008E099E97
:1043C000139950440592224603915946CDF810E0C6
:1043D00002960195009502F081FD1F9B1E983946BB
:1043E0001C440B9A83681F945B6998470446002815
:1043F000DFD10B9E139B01369844169BB34240F3CA
:1044000085801E98C2E7CDF82C80B346984600E020
:10441000A3461E980BF101043946836822465B6966
:1044200098478045F4D00A9AC6EB0B03DDF82C8040
:104430005046059201330D9ACDF810809119139EC4
:10444000099A039602920195149A06FB0388009537
:10445000264602F043FDD0E70028CBD00D9B0B96FB
:1044600003EB060BDDF87CE022460A9E01230EF0EA
:1044700007005946059606900AEB0E00BEF1000FA4
:10448000139E0295B8BF0EF1070E0396019508EB37
:10449000EE0E0095CDF810E003F09EFC1F9B1E98D9
:1044A00039461C440B9A83681F945B6998470446FD
:1044B0000028D7D19DE7A1460125099E0123022F9F
:1044C00051460A9A58460AEB030E00F0A981042FC0
:1044D00000F07D819F4200F052810B9CF246CDF8A6
:1044E00014900294209CCDF80C90019500950494B2
:1044F00002F0F4FC013EE1D10D98FDF7CDFF20A8BC
:10450000FDF7CAFF0E98FDF761FC24E51EA8FDF734
:10451000C3FF20E501240A9B139A0999059304908F
:104520005846039202915146169B149A01940094A6
:1045300002F0D4FC0FE50E9A0124183300250392F3
:10454000514604935846099BCDF808900A9A059560
:104550000194009402F0C2FCFDE40125DDF82890EE
:10456000099E0123022F51464A4658460AEB030E84
:1045700000F0D480042F00F0A0809F426DD0002472
:1045800001950095F246059403940B9C0294209C9F
:10459000049402F0A3FC013EE3D146E6FDF748FE99
:1045A0001F9000283FF441AE0A9A0124CDF828B0AC
:1045B0004FEA420990460C95CDF83C90B146DDF8A3
:1045C00038B017E0042F2ED0012F28D00B9B0020ED
:1045D000209D5146029301230590424603909A4440
:1045E000019400940A98049502F078FC099B013B21
:1045F00009932BD0022FE5D1209B1E463B46424615
:104600001F995846D9F81450A8470F9D31463B468C
:10461000AB440C9D42461F982D69A847D6E7209BC6
:104620001E460223EBE7209B42460F9E58461D463E
:104630001F990223B344D9F81460B04729460C9D52
:104640003B4642461F982D69A847BFE71FA8FDF7C4
:1046500023FF1198FDF7BAFBE7E50A9B444609964C
:104660005D000C9E0C95209DDDF83880DDF82890CB
:1046700038F8020BA047B047B9F1010905F8010B62
:10468000F6D10E9D01230B985146AE460C9D02902B
:104690005846AE44209DCDF814909A440A9ACDF81D
:1046A0000C90019700970495CDF838E002F016FCC5
:1046B000099B013B0993D6D1B7E50A9B01250996D1
:1046C00044465E000C9F0C96209EDDF83880DDF895
:1046D000289038F8020BA047B847B9F1010946F80D
:1046E000040BF6D10E9E01230B985146B6460C9E44
:1046F00002905846B644209ECDF814909A440A9AE7
:10470000CDF80C90019500950496CDF838E002F0B4
:10471000E5FB099B013B0993D6D186E50A9B012560
:10472000099644465E000C9F0C96209EDDF838806A
:10473000DDF8289038F8020BA047B847B9F1010915
:1047400026F8020BF6D10E9E01230B985146B64671
:104750000C9E02905846B644209ECDF814909A4480
:104760000A9ACDF80C90019500950496CDF838E0A2
:1047700002F0B4FB099B013B0993D6D155E59500A6
:104780000C9C09960C95209D4646DDF8289056F81D
:10479000040BA047B9F1010905F8010BF7D10B98FB
:1047A0000123209E514602905846CDF814909A4419
:1047B0000A9ACDF80C900197009704960C9D02F090
:1047C0008DFB099BA844013B0993DCD194E6099633
:1047D000012596000C9C0C96209E4746DDF82890FB
:1047E00057F8040BA047B9F1010946F8040BF7D1BB
:1047F0000B980123209F514602905846CDF8149003
:104800009A440A9ACDF80C900195009504970C9E55
:1048100002F064FB099BB044013B0993DCD16BE6D9
:104820000996012596000C9C0C96209E4746DDF8C3
:10483000289057F8040BA047B9F1010926F8020B9C
:10484000F7D10B980123209F514602905846CDF88E
:1048500014909A440A9ACDF80C900195009504970B
:104860000C9E02F03BFB099BB044013B0993DCD159
:1048700042E600BF094B1A6A002A18BF002003EB6A
:10488000800210B49469002C04DB4FF0FF3443F82D
:10489000201094615DF8044B704700BFD4C2012022
:1048A00058B311B30AB3B1F90030F0B5B2F9005002
:1048B000B2F902E0B1F902409D42B2F90470B2F9D6
:1048C0000660A8BF1D46B1F904207445B1F9063051
:1048D000A8BF7446BA420580B8BF3A46B342448086
:1048E000B8BF33468280C380F0BD002908BF11469F
:1048F0000A684B68026043607047704778B189B2BC
:10490000C38892B270B40688448885880E441444E3
:104910001A442944068044808180C28070BC70475C
:1049200070B4124D04462B686A6893420FD0104E43
:10493000B34293E8070014BF0C333C3B84E8070004
:104940002B60207A003070BC18BF01207047094AE4
:10495000934204D013E9070084E80700F1E73C33F1
:1049600093E8070084E80700EBE700BF8800002019
:104970003CC3012000C30120034B09CBC01AB0FA8D
:1049800080F04009704700BF88000020F0B53C4E21
:1049900085B00446336D002B55D03A4A01AD3A49F3
:1049A000F36C116094E8070085E807000BB1284616
:1049B0009847364F3C687B689C4232D0B342304ABD
:1049C00032D09DF80C00A3F10C0113F804EC8C46D6
:1049D000864535D18C4233D091423BD002F13C0E1A
:1049E00011F8042C82423DD0734595E8070083E816
:1049F00007000BD00C339C427B600BD0B36C0BB127
:104A00002846984700F048FC05B0F0BD1C4B9C427E
:104A10007B60F3D11E4B9C4214BF0C343C3C3C6089
:104A2000ECE7DFF86CE0DFE79DF80C0096F8442037
:104A300082421DD106F13C0E744519D07146CFE774
:104A400002F13C0ED0E7134B304640F8503F01F0E6
:104A5000CDFFA2E791F8442001F13C0E8242C3D180
:104A60006346C1E7B34208D0A3F10C0C6346BBE731
:104A700095E8070086E80700BCE7054BB4E700BFF0
:104A800000C3012094CA012015920008880000206C
:104A90003CC301205DFF0008094A136851688B423E
:104AA0000CD010B5074CA34293E8030014BF0833A1
:104AB000503B136005F02AFA012010BD002070471A
:104AC0001801002010C40120F0B5164C059F256880
:104AD000069CB5F908E0B5F90C607045B8BF7046A2
:104AE000B242A8BF324690421ADCB5F90A60B5F965
:104AF0000E50B142B8BF3146AB42A8BF2B468B42E5
:104B000003DAF0BD25682DB12C46E5682D6835F037
:104B10000405F7D106940597BDE8F04002F000BF08
:104B2000F0BD00BF84000020B0F90220B1F90630CA
:104B30009A4214DCB1F90220B0F906309A420EDC38
:104B4000B0F90020B1F904309A4208DCB0F9040051
:104B5000B1F900308342CCBF002001207047002013
:104B6000704700BF08B5034B014674221868FBF775
:104B70007AFB08BD8400002000B970472DE9F04F92
:104B8000ABB00D4616461C921B91FDF751FBB0F9D8
:104B9000043004689D422790119400F05881002051
:104BA000FEF77AFFAD4B119A1B689269597C1F90F2
:104BB0000846279D19928242209118BF5A74B5F970
:104BC0000430B5F9062019460793B5F908301046A8
:104BD00012925B1AB5F90A201C46121A089316465F
:104BE000139222462B8A01329B071A92324602F117
:104BF00001021D9240F10E811B9B6A695B1A0392B0
:104C0000002B1C9A1493A2EB000440F3A481099397
:104C10004FF0010B0023DDF868901093002C40F357
:104C2000A5811D9B4FF0000A17941693012315933D
:104C3000119E8B4BB0691B56012B40F386810023DC
:104C4000ADF8A230ADF8A03002F0B6FC431EB0695A
:104C5000ADF8A43002F0F6FC0138ADF8A6002798B4
:104C60005A4600F1140107F01BFC2190002800F0C7
:104C7000D08027985A4600F1140107F011FC2390C8
:104C8000002800F0C180279BD868002840F07E8172
:104C9000169A524500F0B4801A9B10999A00CDF8EC
:104CA00010900AFB0313C4EB0A01D946229005EBCE
:104CB00083030D9115990E93129B01FB02F223447D
:104CC0001E9218934FEA8B03D3460593179B139AB2
:104CD0005B45109CCCBF002301235A45B8BF00237D
:104CE0000B93129B5B440F93189B5B440A93049BAA
:104CF0001A46A24275D01498079BC0EB040A0E9D79
:104D000003440C935A4621460398FEF711FA030E0A
:104D100006465FD0099B089AA3420799CCBF00239F
:104D20000123A2420C9A214402EB0407BDF9A02002
:104D3000B8BF00230691BA420B9903EA01030DDCC8
:104D4000BDF9A2200A98824208DCBDF9A420BA422B
:104D500004DBBDF9A620824280F2A6804FF0000855
:104D6000002B00F08380BAF1000F09DB0D9B002BB4
:104D700006DB1A4651460398FEF7DAF9030E75D0A2
:104D8000BDF9A0309F4223DBBDF9A2300A988342CF
:104D90001EDCBDF9A430BB421ADBBDF9A63083424C
:104DA00016DB30462F4B229EFF221B6846F07F41C8
:104DB0009847199A2C4B53F822301B691B68984767
:104DC000219B02460A9900933846119B0BF0C0FFC5
:104DD000C5F82080059B4C44CA441D44049BA34253
:104DE00090D10E9B1E99159A0B4493440E930D9BE4
:104DF0001946169B11445B450D917FF467AF279BC5
:104E0000239918680BF06CFC279B219918680BF00C
:104E100067FC279D1B991A9B1C980B44A980421E76
:104E20001D99013BE8800A442B81199B6A81194630
:104E3000209A914202D0094B1B685A741F98FEF7C2
:104E40002BFE27A8FDF728FB2BB0BDE8F08FB0F9AB
:104E500006309E427FF4A3AEF3E700BF840000203B
:104E6000DCC5012094000020E0C50120BDF9A03080
:104E7000069A934286DCBDF9A2200F98824281DC1B
:104E8000BDF9A42006998A42FFF67CAFBDF9A620A1
:104E900001468242FFF676AF239B2A6A069800936A
:104EA000119B0BF055FF6BE7DDF89C80B8F90420EF
:104EB000BA422FDCB8F90810B9422BDBB8F906E08A
:104EC0000146864526DCB8F90A00884222DBD8F87C
:104ED0001400F8B12593BB1A194622930A9BCEEB16
:104EE00003031A462493FEF723F9030E259B11D0E2
:104EF000B8F90410B8F90820521A249902FB0112DB
:104F000022990A4408EB8208D8F8202042F07F401A
:104F100090460FE0119A1068002833D0D0F80CE0CA
:104F200039460A9ADEF814802293C047229B8046B5
:104F300040F07F402493199A9A4B53F8222012692B
:104F400052689047249B22900AE7F368304628A9CC
:104F50001B6B984783E60022089B4FF0FF390992AC
:104F6000149ACB4610931344089357E613990022E2
:104F70004FF0FF3317920A4616938A462244159340
:104F8000139255E680464FF07F40D3E7FDF750F986
:104F9000169B2690534500F099801A9B10999A0011
:104FA000CDF810900AFB0313C4EB0A01D9460D910A
:104FB00005EB830312990F934FEA8B032144D346E9
:104FC000059318911599079B01FB02F22292149AFE
:104FD00013440C93179B139A5B45CCBF002301230A
:104FE0005A45109AB8BF00230B93129B5B441E9343
:104FF000189B5B440A93049B93425AD01446149A1C
:105000000F9DC2EB040A5A4621460398FEF790F81A
:105010000646002846D0099B089AA3420B99CCBFAC
:1050200000230123A242BDF9A020B8BF00231F46E0
:105030000C9B03EB0408079B0F40424523440CDC08
:10504000BDF9A2200A98824207DCBDF9A42042459E
:1050500003DBBDF9A620824257DA00220692002F18
:1050600039D0BAF1000F0E9309DB0D9B002B06DB44
:105070001A4651460398FEF75BF80E9B58B3BDF9EC
:10508000A02090450CDBBDF9A2300A998B4207DCC9
:10509000BDF9A430434503DBBDF9A6308B4257DA96
:1050A000069B2B62059B4C44CA441D44049B9C42B6
:1050B000A9D10F9B2299159A0B4493440F930D9BF2
:1050C0001946169B11449B450D9183D126A8FDF7E7
:1050D000E3F9279B94E6BDF9A0209A42D1DCBDF903
:1050E000A2101E9FB942CCDCBDF9A4109942C8DBC6
:1050F000BDF9A610B942C4DB1846239B2A6A39467B
:105100000093119B0BF024FEB9E7279A0692B2F99F
:10511000042042450DDC0698B0F90810414508DB33
:10512000B0F906E00A998E4503DCB0F90A0088421E
:1051300018DA119A106800288FD0D0F80CE0414698
:105140000E930A9ADEF8143098470E9B069086E775
:10515000269A4046119B52F82620219E00960BF07D
:10516000F7FD9DE72593C2EB0803CEEB01020699FC
:105170000E93486919462492FDF7DAFF259B002813
:10518000D7D00698B0F90410B0F90820521A249923
:1051900002FB01120E990A4400EB8202126A069287
:1051A0005DE700BFE0C5012008B5034B7422196814
:1051B000FBF759F808BD00BF8400002008B502F0D5
:1051C000BFFC02F0F7FDBDE8084003F073BB00BF71
:1051D00070B50A4D01282A68567C01D9304670BD49
:1051E0000446FDF71DFC0028F8D02B685C74FFF71F
:1051F000E5FF034B30461C6070BD00BF84000020FB
:105200002CCA012002F0BEBC02F0F6BC02F026BDA2
:10521000034B02461B68D86902B1DA61704700BFD0
:105220008400002010B418B111B10346002002E040
:10523000002101200B46034C034A216013605DF8F6
:10524000044B7047E8C50120ECC5012002F04CBDBD
:10525000084A0B46014670B415681A46064C074EBC
:105260006D7C308054F82500054DC4682B80236A7E
:1052700070BC184784000020E0C50120CAC5012089
:10528000CCC50120034B1B68B3F92A205885104672
:10529000704700BF84000020024B1B6803B1184711
:1052A000704700BF1CC40120024B1A6802B9186085
:1052B000FFF7F2BFBCC3012000B970472DE9F041F0
:1052C000DFF8B88082B00546D8F80040A04242D04E
:1052D0006F461CB919E0FDF7DFF8B4B12046FCF7C2
:1052E000A7FF034638469C680093A542F3D12846A1
:1052F000FCF79EFF0346009A01A89968019391600C
:10530000FDF7CAF83846FDF7C7F82846FCF790FFC6
:10531000D8F804400090A542184B29D094B101AEB2
:1053200002E0FDF7B9F86CB12046FCF781FF0346B7
:1053300030465C680193A542F3D1009A52685A60E6
:10534000FDF7AAF83846FDF7A7F82846FCF73EFD1A
:1053500002B0BDE8F08102AEFCF76AFF83686F46D9
:1053600046F8040D3046C8F80030FDF795F8CCE754
:10537000426838465A60FDF78FF8E6E7CCC4012052
:1053800010B582B018B90124204602B010BD0C46F9
:10539000FCF74EFF828902AB224243F8040D184607
:1053A00014BF01240024FDF777F8204602B010BD99
:1053B00000B9704730B585B00546FCF739FF01905C
:1053C000FDF772FF04AA52F80C1D8B6903441046C6
:1053D0004B61FDF761F82846FCF72AFF124B02905B
:1053E0005C68A54219D084B12046FCF721FF034632
:1053F00003A85C680393A54202D0FDF74DF8F2E7DD
:10540000029A52685A60FDF747F802A8FDF744F87F
:1054100028460AF0F9FB05B030BD426802A85A6080
:10542000FDF73AF8F4E700BFCCC4012000B970479B
:1054300010B582B00C46FCF7FBFE02AB846143F86A
:10544000040D1846FDF728F802B010BD0A4A0023E3
:1054500030B5146883B003605CB105462046FCF7A4
:10546000E7FE02AB026943F8040D18462A60FDF717
:1054700013F8204603B030BDCCC40120002370B522
:105480000B6082B018B90446204602B070BD0D46CC
:10549000FCF7CEFE846801AE01902CB93046FCF7D3
:1054A000FBFF204602B070BD3046FCF7F5FF2046FA
:1054B000FCF7BEFE036901902B60EFE7014B1B6810
:1054C000DB681847F4C50120014B1B681B681847AF
:1054D000F4C50120014B1B685B681847F4C5012027
:1054E000014B1B689B681847F4C50120F8B5084EAE
:1054F00005460468336820461B68984733680746AA
:1055000020465B689847044438462C60F8BD00BFCD
:10551000F4C5012000292DE9F04111DD00240F46DA
:105520000646DFF820802546D8F8003030190135CE
:105530005B6898470444A742F6DC2846BDE8F08142
:105540000025FAE7F4C50120F8B569B105460C4617
:105550000026064F3B6828465B689847013C054497
:105560000644F7D13046F8BD0E46FBE7F4C50120EE
:105570002DE9F843089C054689469846A9684346A4
:105580002846561C4F684946B847013C3246F5D17B
:10559000BDE8F883F8B5B0F90040B0F904500C1B31
:1055A000AC422ADA2344B0F90250E710FF21013B54
:1055B000551B026904F00704DE4302FB057541FA3E
:1055C00004F406F00706D7EBE30205F11405E4B294
:1055D00001FA06F600EB050EF6B20FD0435D013A74
:1055E0000EF101071C43002A445503DD38461744D9
:1055F000FAF763FE3C7834433C70F8BD435D3440B9
:105600001C434455F8BD00BF30B4B0F902408025BA
:105610000369121BB0F9004003FB02F3091B1433AA
:1056200001F0070203EBE1011541435C2B4330BC61
:10563000435470470346B0F90620002114301B691B
:1056400003FB02F2FAF739BE2DE9F04302F10F0431
:10565000804683B0164624111D460F46640003FBA6
:1056600004F01430FCF772FB814688B1FCF7E0FDD2
:1056700001230146084A02A88E8040F8041DCD800F
:105680000C61A1F800804F808A608B81FCF704FFD9
:10569000484603B0BDE8F08348D70108B0F90630AA
:1056A00093423BDDB0F90430F0B40D689D4232DA2C
:1056B000EE1007695C1E05F0070307FB0262C6EBEC
:1056C000E4061432845C013204FA03F3104413F04C
:1056D000FF0308D126B3083510F8013B013E25F041
:1056E0000705002BF6D01C0634D45B000135DBB275
:1056F0001A06FAD55F062A4604D55B000132DBB2F2
:105700005C06FAD402F00703072B0CD0561B0D6081
:10571000701CF0BC70470020F0BC70470020704740
:105720003046F0BC7047002EF0DD0478471CFF2C9B
:105730000DD1831903E017F8014BFF2C07D1BB42B1
:1057400002F10802F7D1E1E764000132E4B2230676
:10575000FAD4DBE7FF2BCDD1EA1DD3E730B583B018
:105760000546FCF765FD034602A89C8940F8043D08
:10577000013C24B29C81FCF78FFE14B92846FCF74B
:1057800025FB03B030BD00BFF0B583B0C0B9224CDB
:1057900005462369CBB1E0681F4E18B91F4B186846
:1057A000F060D8B123681C4F2BB3002663681A4FF2
:1057B000C3B115B1A368184C2BB3304603B0F0BD8C
:1057C000154C01AD2369002BE5D1154A2046012374
:1057D00040F8142F236101F009F9DCE701F0A6FE7F
:1057E000F060DFE7F8688000FCF760FB0028786075
:1057F00008BF0126DDE78000FCF758FBB0FA80F611
:1058000038607609D2E7E0688000FCF74FFB00289B
:10581000A06008BF0126D0E760C30120D4C50120E5
:1058200075FF0008094B10B51C7838B902464FF0D7
:105830007F401A7001F004FB204610BD01220020B9
:105840001A7001F0FDFA204610BD00BFDAC5012034
:10585000002846D02DE9F0411D4614460E46FDF7BE
:1058600019FD05F003030746012B2AD0022B40D176
:10587000B6F90030B6F90420D21A0132121A48BF24
:10588000013203EB620805F00C05FDF7E3FC042D83
:1058900022D00C2D2AD1B6F90210B6F90620521AE0
:1058A0000132121A48BF013201EB62027B1E01383D
:1058B000A4F80080434410446280A380E080BDE8E7
:1058C000F081B6F9043005F00C051B1A03F101084C
:1058D000FDF7C0FC042DDCD1B6F90620121A013206
:1058E000E4E708684B68106053607047B6F902201F
:1058F000DCE7B6F90080C6E7082A10B40EDD102AEE
:105900001CDC00EB4101034650F8042B23F8022B6A
:105910009942F9D101205DF8044B7047022A11D059
:10592000042A00F09A80012A3FD00144034650F82F
:10593000042B03F8012B9942F9D1EBE700205DF825
:10594000044B704700F1100252F8103C01294FEA55
:105950008313DBB226D052F80C4C02294FEA041410
:1059600004F0300443EA04031CD052F8084C032925
:105970004FEA840404F00C0443EA040312D052F802
:10598000044C043902F1100204F0030443EA040356
:1059900000F8013BBED052F8103C01294FEA8313B6
:1059A000DBB2D8D103700120B5E700F1200252F834
:1059B000203C01294FEAC313DBB2F3D052F81C4C50
:1059C00002294FEA841404F0400443EA0403E9D0B6
:1059D00052F8184C03294FEA441404F0200443EA17
:1059E0000403DFD052F8144C04294FEA041404F0E5
:1059F000100443EA0403D5D052F8104C05294FEAAD
:105A0000C40404F0080443EA0403CBD052F80C4C5D
:105A100006294FEA840404F0040443EA0403C1D0D5
:105A200052F8084C073902F120024FEA440404F00E
:105A3000020443EA0403B5D052F8244C012904F0CF
:105A4000010443EA040300F8013B52F8203C4FEA0A
:105A5000C313DBB2B2D10370A5E700F1080454F818
:105A6000083C01294FEA0313DBB213D054F8042C8D
:105A7000023904F1080402F00F0243EA020300F8BD
:105A8000013B3FF447AF54F8083C01294FEA0313A8
:105A9000DBB2EBD1037008465DF8044B704700BFE2
:105AA000082A2DE9F0410C4605461F680CDD102A36
:105AB00021DC1E69002E00F0918022462946022337
:105AC000B0470120BDE8F081013A072A10D8DFE88D
:105AD00002F004510F770F0F0F9A00F1200858F8C9
